:020000040000FA
:06000000EEEF03F0120018
:020006001200E6
:0600080003EF04F01200FA
:02000E00C7B079
:04001000010C000CD3
:04001400C580120091
:0600180073EF04F012007A
:02001E000200DE
:1000200007260000EE0400000A0000006A25000018
:08003000600000009D000000CB
:080038006C500CE16896040114
:1000400000513C0BE842E8420D0802E10AD8010CDD
:100050003BD8010C040E6C5C03E1689644D8010C9B
:10006000000C70D9E652040104BF046B0101086B57
:10007000006B016B066B076B9BEC0BF0DF6ADF50CC
:100080001C6E1D6A010E1C5C000E1D581AE2010157
:10009000015117E1F76ADF34FE0BF736F66E1E0EDC
:1000A000F626200EF7220900F5CF1CF00800F5CF48
:1000B0001DF004D01DC0FAFF1C50F96EFBDFDF2AD3
:1000C000DED7ACD8E55243D1020E0101005D09E153
:1000D00079D8040100BD02D0C80E01D0880E006F8F
:1000E000120047EF01F0040E0401F85D09E122C49B
:1000F0006EFF6E50000802E2050E01D0030EF86F8D
:100100000101000510E111D8020E0101085D03E1B3
:100110000401840E06D0040104BD02D0C80E01D033
:10012000880E046F120047EF01F00CD9020EE12691
:100130000101080E065D000E07590DE206C1DEFF43
:1001400007C1DDFF085102E1010E03D0080506E1F9
:10015000020E086F03D0080EDE6EDD6A0401049300
:100160000491010EDB500413DFCF05F4000EDB50C9
:100170000101065F010EDB50075B280E046F040EC1
:10018000056F0401F9A30CD0D6D815E002C1F6FF23
:1001900003C1F7FF0800F550BED8F6E2DB06F4D73E
:1001A000CAD809E002C1E9FF03C1EAFFEF50B3D8A2
:1001B000F7E2DB06F5D7020EE15C02E2E16AE55206
:1001C000E16EC5D0BFD8020EE126030E0401001572
:1001D000E76E010EE7CFDBFF01C4DFFFDE50010158
:1001E0000627DD500723280E026F040E036FA3D8E5
:1001F0000EE002C1E9FF03C1EAFFEF5004C1E9FFCD
:1002000005C1EAFFEF6EA7D8F2E2DB06F0D7020ED7
:10021000E15C02E2E16AE552E16E99D06D9801017C
:10022000015105E180D8840E006F04011DD0040146
:1002300020AF1CD0010106510401265D01010751C8
:100240000401275904E226C406F127C407F16DDF33
:100250000101010E006F67D8800E006F0401280EA7
:10026000066F040E076FC80E046F12000101020E24
:10027000006F0401056BC80E046F0401080E016FC6
:10028000280E026F040E036FC80E006F12005AD8BA
:10029000E652020E0101005D35E16D50100B32E0B7
:1002A000040101511C6E1D6A080E1C182BE11D5023
:1002B00029E100513C0BE842E8420D0823E10051DE
:1002C000800B20E1200E026F040E036FDF6ADF5007
:1002D0001C6E1D6A080E1C5C000E1D581AE2DF50D1
:1002E000EA6A280FE96E040EEA22EF50E66EDF504C
:1002F000EA6A200FE96E040EEA22E552E750EF6E3B
:10030000DF2AE5D70101006B0ED88C0E006F0401C7
:10031000046BE5521CD004C1E9FF05C1EAFFEF6E92
:100320000101ABEF01F00401080E016F200E026F16
:10033000040E036F1200D9CFE9FFDACFEAFFEE50C7
:10034000ED101200D9CFE6FFE1CFD9FF1200E55240
:10035000E7CFD9FF1200042B000E0523022B032345
:06036000DF06010E120091
:0A036600040120511F0B010801E003
:1003700012002051600BE842E842E842E842E842BD
:10038000010801E01200245103E0240501E01200FD
:100390002151230A39E0010A33E0030A25E0010A6A
:1003A0001CE0240A31E0070A2FE0010A2DE0030ACD
:1003B0000EE0010A01E012004ED90101C80E026FE1
:1003C000040E036F0401F9930101080E17D043D9FD
:1003D0000101C80E046F040E05D03DD90101C00E05
:1003E000046F040E056F120036D90101C00E026FB2
:1003F000040E036F0401F9930101070E066F12004A
:100400002AD922C4C7F4120012000401C06BC20E24
:10041000C16F010EC26FC36BC46BC56B080EC66F94
:10042000B96BB86B1A0E726E1E0E736E0401300E2D
:10043000166F040E176F400E146F0401196F380EFB
:100440001A6F040E1B6F880E186F0401780E1E6F52
:10045000040E1F6F400E1C6F1200D9CFE6FFE1CFD4
:10046000D9FF0401B86B040118BF30D0FC0EDBCFFC
:100470001CF01951D8801C5403E2FC0E19C4DBFF98
:100480000401B86BFC0EDB50B85D19E2B851EA6AA2
:10049000380FE96E040EEA22EF50E66EB851E76EAF
:1004A000FD0EDBCFE9FFFE0EDBCFEAFFE750E926CA
:1004B000000EEA22E552E750EF6EB82BE3D70401B5
:1004C000400E196F1817187D880E18130401B851C3
:1004D000E552E7CFD9FF1200ACD80401B95114E1BD
:1004E000DF6AB2D802E11D500BE0FD0EDBCFE9FF61
:1004F000DB2AFE0EDBCFEAFF01E3DB2AEF50F1E15E
:1005000075D8BF6B010EB96F9AD093D80401B95159
:1005100015E1DF6A99D802E11D500CE0FD0EDBCF3A
:10052000F6FFDB2AFE0EDBCFF7FF01E3DB2A080034
:10053000F550F0E15BD8010EBF6FB96F80D079D86C
:1005400004011CBF52D0030E0401B95D01E1B96B77
:10055000B9514BE0020EB95D03E104011D6B3CD0C3
:10056000B9053DE1400E1C6E1D6ABE511C5C000EBB
:100570001D5803E2400EDF6E02D0BEC4DFFFDFCFA6
:100580001DF4DF50BE5DBE6F780EBC6F040EBD6FF4
:10059000BF050AE1DF5011E0BAC4F6FFBBC4F7FFA4
:1005A0000800F5503AD8F6D7DF5007E0BAC4E9FFA3
:1005B000BBC4EAFFEF5031D8F7D70401BE510FE1B9
:1005C00004011D511C6E1D6A400E1C1805E11D50D2
:1005D00003E10401020E02D00401030EB96F400EC4
:1005E00004011C171C7D880E1C1329D0DF501C6EC3
:1005F0001D6AD950FD0FE96EFF0EDA20EA6E1C501D
:10060000EE5E1D50ED5AFD0EDBCFBAF4FE0EDBCFD1
:10061000BBF4DFCFBEF404011200BCC4E9FFBDC4CB
:10062000EAFFEF6EBC2B000EBD23BA2BBB23DF0607
:100630001200D9CFE6FFE1CFD9FFE6521200E55212
:10064000E552E7CFD9FF1200DF2ADF501C6E1D6A8A
:0E065000FF0E1C1812000101030E016F1200B4
:02065E00780E14
:10066000C86E800EE66E080EE66E83EC12F0E55260
:10067000E552C580C5B0FED7980E9FD8070E9DD80D
:10068000010E9BD8C584C5B4FED7A5EF12F0C58076
:10069000C5B0FED7980E91D8E66A13EC12F0E55279
:1006A000C582C5B2FED796D80401FC6FC584C5B417
:1006B000FED7C580C5B0FED7980E7FD8010E7DD875
:1006C000C582C5B2FED786D80401FD6FC584C5B406
:1006D000FED7C580C5B0FED7980E6FD8020E6DD874
:1006E000C582C5B2FED776D80401FE6FC584C5B4F5
:1006F000FED712000401F6AF08D0F32BF3510A081D
:1007000006E2F42BF36BF26B02D0F36BF46BF6ABF7
:100710000BD0F52BFF0EF25D02E1F26B1200F251ED
:10072000E824F26FF2811200F56B1200D9CFE6FFD8
:10073000E1CFD9FFFE0EDB503F0B806E43D804E0C3
:10074000E8427F0BE706FCE10409826EE552E7CF41
:10075000D9FF1200D9CFE6FFE1CFD9FFE652FE0E56
:10076000DB5089143F0BE81CDF6EFE0EDB50DF14FC
:100770001C6EDF5089141C10896E24D804E0E842F6
:100780007F0BE706FCE18B14E81CDF6E060E1D6E86
:10079000FE0EDB501DC0E7FFE75204E0E8427F0B8E
:1007A000E706FCE1DF141C6EDF508B141C108B6E0F
:1007B000E552E552E7CFD9FF1200E66E13EC12F0D6
:1007C000E5521200060E1C6EFE0EDB501CC0E7FF49
:0C07D000E7521200990EF1DF98EF12F0D2
:0407DC0013EE00F028
:1007E00023EE00F0F86A019C61EC10F003EC00F0DD
:0807F0006AEC12F0FBD71200C5
:0607F800C58AC58812004D
:06080000EEEF03F0120010
:0A080600DACFE4FFE2CFDAFFE9CF1A
:10081000E4FFEACFE4FFE65257EC0AF0030EE126CC
:10082000F250200B33E0F250040B30E0FC0ED76E98
:100830009F0ED66E0001E10528E18150100B01E00A
:10084000010EE76E010EE7CFDBFFE251E840E84022
:10085000E8401F0BDF6E040EDF5C12E2DF50A9ECF4
:100860000AF0EF50E824E66EDF50A9EC0AF097ECAE
:100870000BF0DF50A9EC0AF0010EDB50EF1204D0B0
:10088000F29AF286020EE16FE22BF294F250080B1C
:1008900019E0F250010B16E08150100B01E0010E3F
:1008A000E76E020EE7CFDBFF0001E1510AE1FE0E29
:1008B000D76E4F0ED66EF296010EE16FE36FE26FC8
:1008C000F28AF290030EE15C02E2E16AE552E16E27
:1008D000E552E7CFD9FFE552E5CFEAFFE5CFE9FFE3
:1008E000E5CFDAFF1100D8CFE4FFE0CFE4FFE46EFC
:1008F000DACFE4FFE6529E50010B5DE09D50010B04
:100900005AE00001F03504E2EF510008000EF05506
:1009100005E3EF6BF06BCD9081964CD016681768AD
:10092000186AEDC019F0EEC01AF01B6A1ABE1B68F7
:100930001950165C136E1A501758146E1B50185825
:10094000156E080E1F0B13C010F014C011F015C067
:1009500012F006E0D890123211321032E806FAE1B5
:100960001050CF6E13681468156AEDC016F0EEC013
:1009700017F0186A17BE18681650135C106E1750DF
:100980001458116E18501558126E116A126A1050D0
:10099000CE6E0001F151F21102E0000E01D0010E05
:1009A000F16FF26BE850E8B08186E8A08196EF071E
:1009B000000EF05B9E90E552E5CFDAFFE550E5CF03
:1009C000E0FFE5CFD8FF1000938093929384939635
:1009D0009388939A939C939E8A6A9290929292940F
:1009E00092969298929A896A808094909492948434
:1009F000949C948E8B6A2FEC03F0880ED56E810E3A
:100A0000CD6EF294F29AF184FC0ED76E9F0ED66EE4
:100A10009E909D809F9065EC0AF01DAE02D01E68EE
:100A20001F682AEC0AF0C1EC0AF026BE27687FECAA
:100A30000AF006E0D8901E321D321C32E806FAE1B8
:100A4000AFEC0AF023BE246822501F5C1C6E2350BA
:100A500020581D6E245021581E6E1D6A1E6A1C509F
:100A6000CE6EF290F286F180F18ED08EF28CF28E04
:100A7000120057EC0AF0E652948E949CE10EAF6E91
:100A8000040EB06E240EAC6E900EAB6E080EB86EF7
:100A9000AE50DF6EE5525CEF0AF057EC0AF0FE0E46
:100AA000DB50AD6E5CEF0AF057EC0AF0E652ABA2F9
:100AB00005D0AB98AE50DF6EAB8802D0AE50DF6E83
:100AC000DF50E5525CEF0AF0550EA76EAA0EA76E36
:100AD000A682120058EC0BF0DF6A0F0EDF5C16E204
:100AE0004CEC0BF023EC0AF0010EDB380F0B60EC42
:100AF0000AF041EC0BF023EC0AF0010EDB5060EC45
:100B00000AF0010F41EC0BF0DF2AE7D700010D0ED0
:100B1000BE6FBF6B060EE06FF86A020EE15C02E288
:100B2000E16AE552E16E5CEF0AF058EC0BF0DF6A27
:100B3000100EDF5C08E24CEC0BF0CAEC0AF0DBCFE5
:100B4000EFFFDF2AF5D7F86A020EE15C02E2E16A04
:100B5000E552E16E5CEF0AF058EC0BF0840EA66EE5
:100B6000DF6A100EDF5C0CE2CAEC0AF0EFCFDBFFAD
:100B700046EC0AF0010EDBCFF5FF0C00DF2AF1D7BF
:100B8000A3DFF86A020EE15C02E2E16AE552E16E7F
:100B90005CEF0AF057EC0AF0E652940EA66EE0C441
:100BA000F6FFE1C4F7FFE2C4F8FF0800F550DF6E7E
:100BB0008BDFF86AE5525CEF0AF0FF0E0001F95D89
:100BC00007E18250040B02E1000E01D0010EF96F23
:100BD000F951120057EC0AF0050EE126020E000151
:100BE000E15D15E196EC0AF0DF6E0E0EDF5C0CE1C4
:100BF0001CEC0AF03F0E0001E7151F6EEEDBFC0E49
:100C0000E815EF6FF06BCD800001E26BE16BFA2B22
:100C1000FA513F0B02E0000E01D0010EF31501E185
:100C2000B4D047EC03F0400E0401FD151C6E400EDD
:100C30000401FC151C1003E00001FA07B5D0FCA963
:100C40000AD0FC1DD2EC0AF0010E1CC0DBFF020E24
:100C50001DC0DBFF06D0FC51E66ED950010FDAEC67
:100C60000AF0D950010FE96EDACFEAFF020E0F0B3E
:100C700006E0EC52D890ED32EF32E806FAE1BAEC39
:100C80000AF01D340CE21C500308000E1D5407E24C
:100C9000030EF36E010EF3CFDBFF020EDB6ABAEC3C
:100CA0000AF0D8801D5004E7FC0E1C5CFF0E1D5896
:100CB00007E2FC0EF36E010EF3CFDBFF020EDB68E2
:100CC0000401FDA90AD0FD1DD2EC0AF0030E1CC0E0
:100CD000DBFF040E1DC0DBFF06D0FD51E66ED950D0
:100CE000030FDAEC0AF0D950030FE96EDACFEAFF0E
:100CF000020E0F0B06E0EC52D890ED32EF32E80610
:100D0000FAE1E2EC0AF01D3409E21C500308000E7F
:100D10001D5404E2030EDB6E040EDB6AE2EC0AF003
:100D2000D8801D5004E7FC0E1C5CFF0E1D5807E226
:100D3000FC0EF36E030EF3CFDBFF040EDB68040E34
:100D4000E76EBAEC0AF0E7501C26000E1D22030ED7
:100D5000D8901C361D36E806FBE11CC0F5F0030EEA
:100D6000DBCF1CF0040E1C240001F527F5513F08D1
:100D700002E23F0EF56F13EC0BF0A7DB1DAE02D0C5
:100D80001E681F6867DBCD800FD0FA510F0B02E0A1
:100D9000000E01D0010EF71507E0280EF65D02E106
:100DA000F66B01D0F62B9EDB060E0401F85D15E311
:100DB0006D50020B12E10401B9510FE1010EE66E14
:100DC000600EE66E000EE66E2DEC02F048EC0BF0C5
:100DD000000902E109D801D0FFD8050EE15C02E26A
:100DE000E16AE552E16E68D362DB110EE126000193
:100DF000E05101E1EAD0DF6AE00516E172EC0BF0A8
:100E0000090EDB6A040EF36E090EE3DB0AE25CEC0A
:100E10000BF0090EDB509DDB69EC0BF0090EDB2AB1
:100E2000F1D7F5DA63EC0BF0020E0001E05D3CE176
:100E300072EC0BF07BDBE76E0B0EE7CFDBFFDB50DA
:100E40000E0826E10C0EDB6A0D0EDB6A0C0EDBCF02
:100E50001CF00D0EDBCF1DF0D8901D5004E6020EE5
:100E60001C5C000E1D581DE25CEC0BF00C0EDBCF81
:100E7000E9FF0D0EDBCFEAFFE70EE926000EEA22BE
:100E800069EC0BF00C0EDB2A0D0EE0E3DB2ADED75B
:100E9000BEDA450EBFDB200E07DB0B0EDBCFE6FF15
:100EA000BEDAB5DA63EC0BF0030E0001E05D01E0A1
:100EB00083D0ADDA540EAEDB310EACDB3A0EF4DA91
:100EC000000EED15FF0EEE151C6E1D6AE850E66E65
:100ED000CDEC09F0DDDB100EDB6A020EF36E100EB6
:100EE00078DB15E2D950010F1C6EDACF1DF0100E21
:100EF000DB500F011C24E96E000EDA20EA6EEF5081
:100F0000E66E85DA97EC0BF0100EDB2AE6D7D4DB21
:100F10000001ED51E66E82EC0BF0490E7BDB3A0EE0
:100F2000C3DAF4C0E6FFEEDB410E74DB430E72DB86
:100F3000430E70DB3A0EEF6E0401FCAB06D0FC1DD5
:100F40001F0BFC6F64DA2D0E02D061DA200EACDAD2
:100F5000FCC4E6FF84DB200EEF6E0401FDAB06D07F
:100F6000FD1D1F0BFD6F53DA2D0E02D050DA200E3F
:100F70009BDAFDC4E6FF73DB200EEF6E0401FEABCF
:100F800006D0FE1D1F0BFE6F42DA2D0E02D03FDA97
:100F9000200E8ADAFEC4E6FFB5DB540E3BDB480EBA
:100FA00039DB3A0E37DB200E7FDAF3C0E6FF57DB82
:100FB0008ADB0001E06B01D0E02BA00EE66E000E94
:100FC000E66E6CEC02F0E552E552110EE15C02E2D5
:100FD000E16AE552E16E70D2200E0001605D02E12F
:100FE000010EE06F720E605D0BE1E16BE26BE36B93
:100FF000E66A96EC03F0E5529D900001010EE06F69
:10100000730E605D18E1200EFB15E00BE838E84038
:1010100000012C6F1F0E0001FB1500012B6FFC0E51
:101020000001FC1500012A6F0001FB2BB8EC0DF04C
:101030000001020EE06F310E605D02E1010E71DA17
:10104000320E0001605D02E1020E6BDA330E000128
:10105000605D02E1040E65DA340E0001605D02E1BC
:10106000080E5FDA350E0001605D02E1100E59DAFC
:10107000360E0001605D02E1200E53DA370E0001EA
:10108000605D02E1400E4DDA380E0001605D02E164
:10109000800E47DA0001F86B3C0E605D05E1F4510B
:1010A000000801E2F407E4DA3E0E605D05E13F0E60
:1010B000F45D01E2F42BDCDA2C0E605D09E1080E30
:1010C000F55FF80EF517000EF55D01E2F56B2BDB11
:1010D0002E0E605D0AE1080EF527F80EF517F551A2
:1010E000300802E2300EF56F1EDB7A0E605D01E122
:1010F0001ADB780E605D06E19FD9F5291F6E6DD968
:10110000010EF86F630E605D03E196D9020E90DA6E
:10111000760E605D03E190D9030E8ADA620E605D9F
:1011200003E18AD9040E84DA6E0E605D03E184D98E
:10113000050E7EDA6D0E605D03E17ED9060E78DA6B
:10114000700E605D02E1F66BF771610E605D20E18B
:101150009D709E9068DA15DA26BE2768D0D906E021
:10116000D8901E321D321C32E806FAE1F8D923BEAF
:10117000246822501F5C1C6E235020582450215894
:101180001D6A1E6A1C50CE6E0001010EF86FE06FE2
:10119000F85107E09AD91DAE02D01E681F685AD9CF
:1011A000CD80770E0001605D03E1F371010EE06F09
:1011B0005B0E605D04E1F65101E0F60793D95D0E28
:1011C0000001605D05E1280EF65D01E0F62B8AD98D
:1011D00012006DD9040EE126DF6A030EDB6A010EF0
:1011E0001CDAEF6AFB0EDBCFE9FFFC0EDBCFEAFF78
:1011F000000EEF6E020EDB6A040EF36E020EE9D9EA
:1012000001E37AD014D9EF9EEF46060E1C6E39D951
:10121000C00B1CC0E7FFE75204E0E8427F0BE70683
:10122000FCE190D902E0000E01D0010E1C6E010E0F
:10123000DB0404E0010EDB50020802E1000E01D0E5
:10124000010E1C1404E0030EDFCFDBFF01D0F6D942
:1012500000DA300BE8380F0B75D902E0000E01D030
:10126000010E1C6E010EDB0404E0010EDB500208CF
:1012700002E1000E01D0010E1C1404E0030EDFCFCA
:10128000DBFF01D0DBD9E5D90C0BE840E8403F0B90
:1012900059D902E0000E01D0010E1C6E010EDB04D4
:1012A00004E0010EDB50020802E1000E01D0010E45
:1012B0001C1404E0030EDFCFDBFF01D0BFD9C9D976
:1012C000030B40D902E0000E01D0010E1C6E010E8E
:1012D000DB0404E0010EDB50020802E1000E01D045
:1012E000010E1C1404E0030EDFCFDBFF01D0A6D9F2
:1012F000DF2A020EDB2A80D7030EDB501C6E040EA1
:10130000E15C02E2E16AE552E16E1C50D5D0CFD833
:101310009CD9800BE844010B6ED801E3DB2A93D8FB
:10132000060E226EFE0EDB50400B22C0E7FFE75296
:1013300004E0E8427F0BE706FCE15DD801E3DB2A2D
:1013400084D9200BE00BE838E84055D801E3DB2ACC
:101350007CD9100BE8380F0B4ED801E3DB2A75D986
:10136000080BE840E840E8401F0B45D801E3DB2AC2
:101370006CD9040BE840E8403F0B3DD801E3DB2A81
:1013800064D9020BE8407F0B36D801E3DB2A5DD934
:10139000010B31D801E3DB2A8FD089D854D8FE0E57
:1013A000DB380F0B28D801E3DB2A4FD90F0B23D8EA
:1013B00001E3DB2A81D07BD8E652DF6AFA0EDB50EC
:1013C000DF5C09E2DF5029D9EF50E66EDF504AD9E1
:1013D000AED9DF2AF3D7E5526FD0206A216AD890C0
:1013E0001F36203621360DD90900F5CFEDF00A0061
:1013F000F5CFEEF012007ED9FC0EDBCFE9FFFD0E3B
:10140000DBCFEAFF94D9FC0EDB2AFD0E1200DF5081
:10141000DF2AEA6AA00FE96E000EEA221200CDEC84
:1014200009F036D9020EDAD8020EDF261200020EBB
:10143000DB407F0B0DEF0BF0860E1C6E1E0E1D6E3B
:10144000000E1E6E12002F0E1C6E1F0E1D6E000E63
:101450001E6E1200E9C006F0EAC007F0EBC008F00B
:10146000ECC009F01CC00BF01DC00CF01EC00DF04C
:101470001FC00EF0DFEC11F006C0EFF007C0F0F077
:101480001200020EDB50EED8EF501200DFCF1CF03E
:101490001D6A1E6A0401E0511C24F36EE1511D20F7
:1014A000F46EE2511E2039D1EF6E5CEF0BF0D9CF14
:1014B000E6FFE1CFD9FF1200E552E7CFD9FF1200D6
:1014C0000F0B18D9DF50E8241200EDC01CF0EEC05D
:1014D0001DF0D8901C361D36D8901C361D361E6A5D
:1014E0001F6A1200F651F76A060FF66E1F0EF722FA
:1014F0000800F550E66E96EC03F0E5521200255018
:10150000225C1F6E26502358206E27502458216ECF
:10151000080E1F0B1FC01CF020C01DF021C01EF0C4
:101520001200E66EAAEC03F0E5521200E70EE66E3A
:10153000000EE66EE30EE66E000EE66E4ADEA8D8FA
:10154000E5521200E76E010EE7CFDBFF030EDB5022
:101550001200EA6AE30FE96E000EEA2212001C5044
:10156000CF6E1F682068216AEDC022F0EEC023F024
:10157000246A1200010EDBCF1CF0020EDBCF1DF03F
:10158000120022682368246AEDC025F0EEC026F020
:10159000276A1200DF50EA6AD00FE96E040EEA22D1
:1015A000010E12001F0B1C6E1D6A1C6C1D1E000E0E
:1015B0001D221200E96EDACFEAFFE552E750EE6E27
:1015C000ED6A1200030EDBCF1CF0040EDBCF1DF022
:1015D0001200DBCFF4FFF350F45C1200E66E6CD81F
:1015E000DF501D6AA00F1C6E000E1D221CC0E6FFFE
:1015F0001DC0E6FFDBEC09F01E6E050EE15E1E501D
:1016000012001C501F24F36E1D502020F46E1E503B
:10161000212083D0EF6E07EF0AF0E76EFB0EDBCFE1
:10162000E9FFFC0E73D008DFF5C01FF0EDEF09F005
:10163000F5251F6ED2DE010EF86F1200010EDB04DD
:101640001C6EF5DE1C50EF121200FDDEFE0EDB50AC
:101650001200DF2AECDEEF9EEF4641EF0AF0DFDEFC
:1016600007EF0AF0E76EFD0EDBCFE9FFFE0E4ED06E
:10167000E3DEF4C01FF0B1DEEF6B100EF06FCD8033
:101680001200EA6AA00FE96E000EEA2297EF0BF053
:10169000E552E552E5521200F9DE0800010EF5CFE1
:1016A000DBFF1200080EDF26B2DE200EEF6E120006
:1016B000FEDE020EE1261200D950010FE66E000E8A
:1016C000DA20E66E12000A0EA5DF0D0EA3DFEF6A28
:1016D0001200EF50E66E87EC09F0DADF080E7EDFCD
:1016E00052EF0BF094DE490E95DF520E93DF200E81
:1016F000EF6E12001F6E206A216A83DF0800F5502A
:10170000E66E1200ACDF200E0AEF0BF0DBCFEAFF33
:10171000E750E926000EEA221200F86EF4CFF7FF38
:10172000F3CFF6FF12007FDF010EF86F1200E552D3
:06173000E750EF6E12000D
:0A17360004012051600BE842E84274
:10174000E842E842E842000901E012002151070A9C
:1017500040E00B0A3EE0070A33E0010A23E00B0AEF
:101760001FE0020A1DE0030A19E0080A10E0010A5E
:101770000CE00F0A08E0030A01E0120012D904018C
:10178000040EF86F1200EAEF0BF021EF0CF009D90C
:101790000101FA0E026F040E036F0CD03CEF0CF047
:1017A0006EEF0CF002D90101026F036BFB0E0227F2
:1017B000040E03230401F9930101010E066F1200C8
:1017C000F4D8EA6AFB0FE96E040EEA2222C4EFFFA6
:1017D00012001200800E0401205D32E12351030A41
:1017E0001FE0010A0AE0030A29E1DBD80101530ED8
:1017F000026F1F0E036F120E1ED0ADD8140EF62608
:10180000200EBBD8020E0101F76A0225F66E0351C5
:10181000F7220900F5CF06F10A00F5CF07F10ED047
:101820009AD8180EF626200EA8D802C1F6FF03C1DA
:10183000F7FF0800F5500101066F076B0401F983FB
:101840001200AFD80F0EE66E710EE66E0F0E9DD829
:10185000010EE66EFB0EE66E040E97D822C4FAF473
:101860000401225104E10401050EF86F1200040185
:10187000060EF86F05EF02F00401286B296B0401D6
:1018800020511F0B020A0FE0030A0BE0010A18E1C6
:1018900088D8040128810401F9A112D00401288309
:1018A0000FD07FD80DD04BD801E0010E5DD804C118
:1018B000E9FFEA6EEF50040B03E00401010E286F0C
:1018C000010101050AE10101280E026F040E036FF8
:1018D0000401F9930101020E066F120004012205B2
:1018E0000EE120511F0B00090AE15BD8030E040131
:1018F000215D03E10401F98102D00401F9910401A1
:1019000022511CE120511F0B020818E124510F0B3A
:10191000000914E014D801E0010E26D8030E0401DA
:10192000215D04E1840E38D8EF6E120024AF03D09D
:1019300033D8EF6A1200880E2FD8EF6E120035D818
:101940000F0B080DF3501D6A000F1C6E040E1D22B4
:101950002451800B120025D804012251F66EF76A3B
:10196000D890F636F7361200040DF35001011C240E
:10197000046F000E1D20056F1200F7220900F5CF3D
:1019800002F10A00F5CF03F11200E66EA3EC0DF0B0
:10199000E552E552E552120004C1E9FF05C1EAFF34
:1019A00012000101010E016F1200FBDF040124513E
:0219B000120023
:0E19B200DDEC05F0010804E16DB604D00FD89D
:1019C00002D06DB613D80401F80508E16DBA06D04F
:1019D000686A696A69806988020EF86F12006D6A28
:1019E000696A6D860401010EF86F12006D6A696AFA
:1019F0000401F86B1200F6EF0CF00401F85101E15C
:101A000012006850040B04E06950040B01E046D852
:101A10006DB212006850010B04E06950010B01E047
:101A20006AD86850100B04E06950100B01E02ED802
:101A30006850400B04E06950400B01E048D8685002
:101A4000200B04E06950200B01E043D86850020BE2
:101A500004E06950020B01E04CD8030E0401F85D6C
:101A600001E212000001FD6B040EFD5D0EE2685004
:101A7000080B0BE06950080B08E01CEC00F00009B3
:101A800001E168960001FD2BEFD712006984689888
:101A90006D82A19AA08A0300A09A12006D926994A7
:101AA00068A402D06894FCD712000401F9A10ED0FA
:101AB0006D926D840001080EFE6F070EFF6FFE072A
:101AC000000EFF5BFE51FF11FAE16D941200689C5D
:101AD000120070A00CD0800E0401005D07E1840E9E
:101AE0000401045D03E104018C0E006F7090689A9C
:101AF00012006A6A12006A6A686A9F0E6B6E7B0E39
:101B0000696E6E6A0F0EE66E710EE66E0F0EE66E71
:101B10001AD8E552E552E552160E706E68A608D046
:101B20006896000000000000000000000000F6D7EA
:101B30006D9847EC01F00401F9910401FA6B04017E
:101B4000030EF86F1200D9CFE6FFE1CFD9FFFD0EEB
:101B5000DBCFE9FFFE0EDBCFEAFFFC0EDB5004E03B
:101B6000EE6AFC0EDB06F9D7E552E7CFD9FF12008B
:101B7000F29E2B362B362B362A362A3618EC0EF0F0
:101B800018EC0EF02CA031EC0EF02CB018EC0EF08E
:101B90002B36D8A031EC0EF0D8B018EC0EF02B3666
:101BA000D8A031EC0EF0D8B018EC0EF02B36D8A03F
:101BB00031EC0EF0D8B018EC0EF02B36D8A031EC8A
:101BC0000EF0D8B018EC0EF02B36D8A031EC0EF099
:101BD000D8B018EC0EF02A36D8A031EC0EF0D8B000
:101BE00018EC0EF02A36D8A031EC0EF0D8B018EC74
:101BF0000EF02A36D8A031EC0EF0D8B018EC0EF06A
:101C00002A36D8A031EC0EF0D8B018EC0EF02A36F7
:101C1000D8A031EC0EF0D8B018EC0EF02A36D8A0CF
:101C200031EC0EF0D8B018EC0EF0819AF28E120062
:101C3000819AFF0E286E282EFED7270E286E282E9A
:101C4000FED700D0200E296E818A00D000D000D0AF
:101C5000819A050E286E282EFED70000292EF4D773
:101C60001200200E296E818A00D000D000D0819A07
:101C7000050E286E282EFED70000292EF4D700D09E
:101C8000819AFF0E286E282EFED7270E286E282E4A
:101C9000FED71200FF0E286E282EFED74C0E286E9F
:101CA000282EFED71200030E286E282EFED7120013
:101CB000000EF36E00EE00F0080E01D81200EA608C
:101CC00002D0EE6AFCD7F350E9601200EE6AFCD74E
:101CD000D9CFE6FFE1CFD9FFA5EC12F0C580C5A0B2
:101CE00003D0FDD7C5B0FED7A1B646D0FE0E58D85A
:101CF00004E0C584C5B4FED71CD0C5BC47D0FD0EDA
:101D00004FD804E0C584C5B4FED713D0C5BC3AD0C3
:101D1000C582C5A203D0FDD7C5B2FED7FE0EDB2813
:101D2000E66E13EC12F0E552000905E0C584C5B477
:101D3000FED7FD0E31D0C5BC21D0FA0EDBCFE6FFB9
:101D4000FB0EDBCFE6FFFC0EDBCFE6FFAAEC11F0CB
:101D5000E552E552E55200090FE1C58AC588C5A8DC
:101D600003D0FDD7C5B8FED7C584C5A403D0FDD721
:101D7000C5B4FED7A1A60FD0FF0E0ED0C584C5B442
:101D8000FED707D0C584C5B4FED703D0C584C5B47B
:101D9000FED7FE0E01D0000EE552E7CFD9FF1200AC
:0E1DA000DBCFE6FF13EC12F0E5520009120053
:021DAE00D9CF8B
:101DB000E6FFE1CFD9FFA5EC12F0C580C5A003D0A6
:101DC000FDD7C5B0FED7A1B63BD0FE0E55D804E076
:101DD000C584C5B4FED71ED0C5BC3DD0FD0E4CD8C1
:101DE00004E0C584C5B4FED715D0C5BC2FD0C582CC
:101DF000C5A203D0FDD7C5B2FED7A1B621D0FE0E35
:101E0000DB28E66E13EC12F0E552000905E0C5840C
:101E1000C5B4FED7FD0E23D0C5BC14D0C586C5B64B
:101E2000FED7C58AC588C5A803D0FDD7C5B8FED7DB
:101E3000C584C5A403D0FDD7C5B4FED7A1A612D0D2
:101E4000F3680ED0C584C5B4FED703D0C584C5B42D
:101E5000FED7FE0E04D0C584C5B4FED7FE0EF36EC9
:101E6000F46806D0C9501C6E1D6AF36E1DC0F4FFE5
:101E7000E552E7CFD9FF1200DBCFE6FF13EC12F0FB
:061E8000E552000912000A
:0A1E8600BB3B3835682FBC2CDC276D
:101E90008323A31FDE1DDE1D9A1AB4176016EE13EE
:101EA000C211D10FEE0EEE0E4D0DDA0B300BF7090D
:101EB000E108E90777077707A706ED059805FC0411
:101EC0007104F503BC03BC035403F702CC027E0289
:101ED0003802FA01DE01DE01AA017B0166013F0141
:101EE0001C01FD00EF00EF00D500BE00B300A00014
:101EF0008E007F00780078006B005F005A00500071
:101F0000470040004000FF0C040CF80060F49CBC4B
:101F1000FC0078C88C8C8000FF3838EC0000FF1B78
:101F2000117FC4000FF8E07C0700F03F277EE0300F
:101F3000313233343536373839414243444546002F
:101F400020205445535420575249544520202020E6
:031F50002020004E
:0D1F53001201000202000008D8040A00017B
:101F6000000102000109024300020100C03209041D
:101F700000000102020100052400100104240202F5
:101F8000052406000105240100010705820308005D
:101F90000209040100020A000000070503024000D4
:101FA00000070583024000000403090434034D00C8
:101FB0006900630072006F006300680069007000D0
:101FC000200054006500630068006E006F006C0024
:101FD0006F0067007900200049006E0063002E004A
:101FE00034034300440043002000520053002D00FE
:101FF000320033003200200045006D0075006C0097
:102000006100740069006F006E00200044006500EC
:102010006D006F00651F651FA81FAC1FE01F6603E2
:10202000D9CFE6FFE1CFD9FFA5EC12F0C580C5A05E
:1020300003D0FDD7C5B0FED7A1B635D0FE0E3AD835
:1020400004E0C584C5B4FED708D0C5BC1FD0FD0EC2
:1020500031D805E0C584C5B4FED7FD0E27D0C5BC78
:1020600011D0FB0EDBCFE6FFFC0EDBCFE6FF75ECFD
:1020700011F0E552E55200090EE0C584C5B4FED763
:10208000FC0E14D0C584C5B4FED703D0C584C5B436
:10209000FED7FE0E0BD0C584C5A403D0FDD7C5B4B2
:1020A000FED7A1A602D0FF0E01D0000EE552E7CF69
:1020B000D9FF1200DBCFE6FF13EC12F0E552000966
:0220C00012000C
:0E20C2001E0EF66E000EF76E000EF86E040194
:1020D0000900F550E96F0900F550EA6F03E1E9677F
:1020E00001D03DD00900F550E46F0900F550E56FCF
:1020F0000900F550E66F09000900F550E96E090086
:10210000F550EA6E090009000900F550E76F090073
:10211000F550E86F09000900F6CFEBF4F7CFECF4C7
:10212000F8CFEDF4E4C4F6FFE5C4F7FFE6C4F8FF2A
:102130000401E75302E1E85307E00900F550EE6EB1
:10214000E707F8E2E807F9D7EBC4F6FFECC4F7FFBE
:10215000EDC4F8FF0401E907000EEA5BBFD71200E7
:10216000D9CFE6FFE1CFD9FFA5EC12F0C580C5A01D
:1021700003D0FDD7C5B0FED7A1B62BD0FE0E30D808
:1021800004E0C584C5B4FED711D0C5BC15D0FD0E82
:1021900027D804E0C584C5B4FED708D0C5BC08D094
:1021A000FC0E1ED80EE0C584C5B4FED7FD0E14D0BB
:1021B000C584C5B4FED703D0C584C5B4FED7FE0E12
:1021C0000BD0C584C5A403D0FDD7C5B4FED7A1A646
:1021D00002D0FF0E01D0000EE552E7CFD9FF12006A
:0E21E000DBCFE6FF13EC12F0E552000912000F
:0221EE00D9CF47
:1021F000E6FFE1CFD9FFA5EC12F0C580C5A003D062
:10220000FDD7C5B0FED7A1B621D0FE0EDBCFE6FFCD
:1022100013EC12F0E552000905E0C584C5B4FED701
:10222000FD0E1AD0C5BC14D0C586C5B6FED7C58A6A
:10223000C588C5A803D0FDD7C5B8FED7C584C5A439
:1022400003D0FDD7C5B4FED7A1A609D0F36805D049
:10225000C584C5B4FED7FE0EF36EF46806D0C9502F
:102260001C6E1D6AF36E1DC0F4FFE552E7CFD9FF67
:0222700012005A
:0E227200D9CFE6FFE1CFD9FFA5EC12F0C58071
:10228000C5A003D0FDD7C5B0FED7A1B61FD025D8B5
:1022900004E1C584C5B4FED70FD0C5AC0FD0C5824C
:1022A000C5A203D0FDD7C5B2FED7A1B60FD015D8B1
:1022B000F4E1C584C5B4FED7FD0E0BD0C584C5A41A
:1022C00003D0FDD7C5B4FED7A1A602D0FF0E01D022
:1022D000000EE552E7CFD9FF1200FE0EDBCFE6FF7E
:0A22E00013EC12F0E552FF081200A3
:0622EA00D9CFE6FFE1CFB1
:1022F000D9FFE65227D820E0C6A60AD023D8E66E3A
:1023000013EC12F0E552DF6EDF5010E0DF5015D015
:102310009E9618D8C96EC6889EA6FED7C650100BCA
:1023200005E0C750010B02E1FE0E07D0FD0EDB2ACF
:10233000FE0EE0E3DB2ADED7000EE552E552E7CFE2
:10234000D9FF1200FD0EDBCFE9FFFE0EDBCFEAFF67
:04235000EF50120038
:0C235400D9CFE6FFE1CFD9FFFC0EDBCFB4
:10236000F3FFDB06F350000925E098EC12F0E66E6F
:10237000FD0EDBCFE9FFDB2AFE0EDBCFEAFF01E338
:10238000DB2AE552E750EF6EC5B6FED7A1A602D014
:10239000FF0E11D00F0EC614080804E00F0EC6146D
:1023A0000B08DCE1FC0EDB50D9E0C59AC588C5A856
:0E23B000D5D7FDD7000EE552E7CFD9FF1200BA
:0223BE00006AB3
:1023C000E86A0EAEECEF11F00B6C0C1E0D1E0E1E2B
:1023D0000C220D220E22001E09AEF7EF11F0066C42
:1023E000071E081E091E072208220922001E46ECAD
:1023F00012F009BE0EEF12F000AE000C066C071EC4
:10240000081E091EE86A072208220922026C031E20
:10241000041E051E032204220522000C00BEFEEF4E
:0624200011F00188FF0C21
:0A242600D9CFE6FFE1CFD9FFFE0E8B
:10243000DB50C96EC6AE02D0FF0E24D00F0EC614FC
:1024400008080FE00F0EC6140B080BE0C6889EA606
:10245000FED7C750040B03E1C750010B10E0000E7C
:1024600011D00F0EC614080804E00F0EC6140B0896
:1024700009E1C7B0FED7A5EC12F0C5AC02D0FE0E44
:0C24800001D0000EE552E7CFD9FF12009A
:04248C00056A046A6F
:10249000036A026A200EE76ED890063607360836C1
:1024A000093602360336043605360B50025C0C50F2
:1024B00003580D5004580E50055809E30B50025EA6
:1024C0000C50035A0D50045A0E50055A062AE72E96
:0424D000E4D712003B
:0C24D40004D80FD8EAEC05F0FCD70F0E7E
:1024E000C212140E6F6E0401F86B0401F96B040143
:1024F000FA6BE4EF04F0D9EC0CF06FBE02D0FDEC07
:062500000CF09FEF02F059
:0A250600D9CFE6FFE1CFD9FF3F0E69
:10251000C716C66AC56AFE0EDB50C612FD0EDB503A
:10252000C71293829380C68AE552E7CFD9FF120083
:102530000F0EC614080804E00F0EC6140B0801E1C4
:0A254000C586C7A0FED7C9501200DF
:06254A001F0EC514FDE1A7
:08255000C750040BFAE1120070
:06255800C59AC5881200BF
:02255E00C58432
:02256000120067
:04256200C58212001C
:04256600C69A1200FF
:06256A000000000000006B
:10257000000000000000000000000000000000005B
:10258000000000000000000000000000000000004B
:10259000000000000000000000000000000000003B
:1025A000000000000000000000000000000000002B
:1025B000000000000000000000000000000000001B
:1025C000000000000000000000000000000000000B
:1025D00000000000000000000000000000000000FB
:1025E00000000000000000000000000000000000EB
:1025F00000000040420F000010F40000000000182E
:07260000000100FF0020FFB4
:09260700000000000000000000CA
:0126100000C9
:020000040030CA
:0100000020DF
:0100010000FE
:010002003FBE
:010003001EDE
:010005008179
:010006008178
:010008000FE8
:01000900C036
:01000A000FE6
:01000B00A054
:01000C000FE4
:01000D0040B2
:00000001FF
