:020000040000FA
:0600000007EF02F0120000
:020006000000F8
:08000800DACFE4FFE2CFDAFFDA
:10001000E9CFE4FFEACFE4FFD9CFE4FFDACFE4FF92
:100020000ACFE4FF0BCFE4FF0CCFE4FF0DCFE4FFDA
:10003000F6CFE4FFF7CFE4FFF5CFE4FFF3CFE4FF23
:10004000F4CFE4FFFACFE4FF0FEE0EF0030EE80466
:1000500003E3EECFE4FFFBD7E652F2A404D014ECA6
:1000600002F0F29405D09EA003D014EC02F0F284CA
:10007000E5520FEE10F0030EE80403E3E5CFEDFFC9
:10008000FBD7E5CFFAFFE5CFF4FFE5CFF3FFE5CFF0
:10009000F5FFE5CFF7FFE5CFF6FFE5CF0DFFE5CFA5
:1000A0000CFFE5CF0BFFE5CF0AFFE5CFDAFFE5CF89
:1000B000D9FFE5CFEAFFE5CFE9FFE5CFDAFF110091
:1000C00043E8D9CFE6FFDACFE6FFE1CFD9FFE2CFB1
:1000D000DAFF89E9066A1200F3DF068003D0F0DF59
:1000E00001D00682056A046A100EE76ED8900236C7
:1000F0000336043605360050045C0150055805E30C
:100100000050045E0150055A022AE72EF0D706B2CD
:10011000120006B006D084EB00F085EB01F006A0DB
:1001200004D082EB00F083EB01F0E552E5CFDAFF7B
:10013000E7CFD9FF45E9120044E8D9CFE6FFDACF8F
:10014000E6FFE1CFD9FFE2CFDAFF8AE980EB04F0E6
:1001500081EB05F082EB06F002500402F450016ED0
:10016000F350006E0350076E0502F450036EF35017
:10017000026E07500402F3500126F4500222E86A8E
:10018000032206500502F3500126F4500222E86AC9
:100190000322E552E5CFDAFFE7CFD9FF46E9000CAD
:1001A00016EC02F03EEC01F0D8EF00F08080FED7B4
:1001B0005CD8010E036E046E806E826A0150BC082A
:1001C000020E02541EE2400E035C13E1806A040E2C
:1001D000045C07E1010E036E046E8B74040E82163C
:1001E0000ED0040E8216045082120450E824046ECD
:1001F00006D03F0E0314806E0350E824036E016A9C
:10020000026A000E000903E08A768A768A76012A5D
:100210000222D4D72AD8036A046A939603EB0EFF0E
:1002200004EB0FFF032A000E04220F0101500E5DA4
:1002300002500F5903E28A76016A026A03EB0EFF4D
:1002400004EB0FFF106B1035010E101907E6D88074
:10025000900E0E555F0E0F55010E105502E2036A07
:10026000046A012A000E0222D9D7D9CFE6FFE1CFD6
:0C027000D9FF81E944E8016A026A12002B
:04027C00926A946A84
:10028000939AF2949E90D59CCD9ECF0ECD141009DA
:10029000CD6EF80ED5140009D56ED59AD596D08EB0
:1002A000F184F28A9D80F28CF28E9F80D59ECD9053
:1002B0001200D9CFE6FFE1CFD9FF85E93ED807E0AC
:1002C00002EBE6FF03EBE6FF06D842E9F7D741E988
:1002D000E7CFD9FF1200D9CFE6FFE1CFD9FF83E9FD
:1002E00044E880EB03F081EB04F0056A066A03EB57
:1002F0000EFF04EB0FFF0306000E045A0F010E5110
:100300000F1117E01AD8F3E0020EE66EE66A00EB72
:10031000E6FF01EBE6FF03EBE6FF04EBE6FF9CECF8
:1003200000F06CEC00F0E552E550066EE750056E0B
:10033000E9D745E9E7CFD9FF120000EB0EFF01EB4B
:100340000FFF0006000E015A0F010E510F1112008F
:10035000060EF66E000EF76E000EF86E0F01090025
:10036000F550056F0900F550066F03E1056701D0F0
:100370003DD00900F550006F0900F550016F0900EC
:10038000F550026F09000900F550E96E0900F550BB
:10039000EA6E090009000900F550036F0900F550E5
:1003A000046F09000900F6CF07FFF7CF08FFF8CF69
:1003B00009FF00CFF6FF01CFF7FF02CFF8FF0F01D3
:1003C000035302E1045307E00900F550EE6E030702
:1003D000F8E20407F9D707CFF6FF08CFF7FF09CFF8
:0E03E000F8FF0F010507000E065BBFD71200E5
:0203EE00160EE9
:1003F000F36E00EE00F00F0E01D81200EA6002D09A
:0E040000EE6AFCD7F350E9601200EE6AFCD7FA
:02040E001EEEE0
:1004100000F02EEE00F0F86AA8EC01F017EC02F004
:08042000D0EC00F0FBD7120044
:0404280082801200BC
:02042C001200BC
:02042E001200BA
:020000040030CA
:010003007C80
:010006009168
:00000001FF
