:020000040000FA
:0600000017EF02F01200F0
:020006001200E6
:08000800DACFE4FFE2CFDAFFDA
:10001000E9CFE4FFEACFE4FFD9CFE4FFDACFE4FF92
:100020000AC0E4FF0BC0E4FF0CC0E4FF0DC0E4FF16
:10003000F6CFE4FFF7CFE4FFF5CFE4FFF3CFE4FF23
:10004000F4CFE4FFFACFE4FF00EE0EF0030EE80475
:1000500003E3EECFE4FFFBD7E652F2A40ED000019B
:10006000112B000E122311516408000E125504E2E8
:10007000116B126B24EC02F0F294E55200EE10F0DA
:10008000030EE80403E3E5CFEDFFFBD7E5CFFAFF6E
:10009000E5CFF4FFE5CFF3FFE5CFF5FFE5CFF7FFC1
:1000A000E5CFF6FFE5CF0DF0E5CF0CF0E5CF0BF097
:1000B000E5CF0AF0E5CFDAFFE5CFD9FFE5CFEAFFDC
:0A00C000E5CFE9FFE5CFDAFF1100FC
:0600CA0001004E040000DD
:0800D000110000000200000015
:0800D80043E8D9CFE6FFDACFBF
:1000E000E6FFE1CFD9FFE2CFDAFF89E9066A120025
:1000F000F3DF068003D0F0DF01D00682056A046AD0
:10010000100EE76ED89002360336043605360050DE
:10011000045C0150055805E30050045E0150055A87
:10012000022AE72EF0D706B2120006B006D084EB02
:1001300000F085EB01F006A004D082EB00F083EB29
:1001400001F0E552E5CFDAFFE7CFD9FF45E912002C
:1001500044E8D9CFE6FFDACFE6FFE1CFD9FFE2CF1F
:10016000DAFF8AE980EB04F081EB05F082EB06F020
:1001700002500402F450016EF350006E0350076EFB
:100180000502F450036EF350026E07500402F35060
:100190000126F4500222E86A032206500502F350B9
:1001A0000126F4500222E86A0322E552E5CFDAFF85
:0801B000E7CFD9FF46E9000C7E
:0801B80003EC00F04CEC01F037
:1001C000E7EF00F08A8A8970FED78080FFD75BD87E
:1001D000010E036E046E806E826A015058081B0E79
:1001E00002541DE2400E035C12E1806A040E045CBE
:1001F00006E1010E036E046E040E82160ED0040E8C
:100200008216045082120450E824046E06D03F0E79
:100210000314806E0350E824036E016A026A000E24
:10022000000903E08A768A768A76012A0222D5D7E7
:100230002AD8036A046A939603EB0EF004EB0FF0DE
:10024000032A000E0422000101500E5D02500F59D6
:1002500003E28A76016A026A03EB0EF004EB0FF008
:10026000106B1035010E101907E6D880900E0E5550
:100270005F0E0F55010E105502E2036A046A012A4F
:10028000000E0222D9D7D9CFE6FFE1CFD9FF81E90D
:0802900044E8016A026A120051
:08029800926A946A939A806A4D
:1002A000826A816AF2949E90D59CCF0ECD1410097B
:1002B000CD6EF80ED5140009D56ED59AD596D08E90
:1002C000F184F28A9D80F28CF28E9F80D58ECD9043
:1002D0001200D9CFE6FFE1CFD9FF85E93ED807E08C
:1002E00002EBE6FF03EBE6FF06D842E9F7D741E968
:1002F000E7CFD9FF1200D9CFE6FFE1CFD9FF83E9DD
:1003000044E880EB03F081EB04F0056A066A03EB36
:100310000EF004EB0FF00306000E045A00010E511C
:100320000F1117E01AD8F3E0020EE66EE66A00EB52
:10033000E6FF01EBE6FF03EBE6FF04EBE6FFA8ECCC
:1003400000F078EC00F0E552E550066EE750056EDF
:10035000E9D745E9E7CFD9FF120000EB0EF001EB3A
:100360000FF00006000E015A00010E510F1112008D
:10037000CA0EF66E000EF76E000EF86E0001090050
:10038000F550056F0900F550066F03E1056701D0D0
:100390003DD00900F550006F0900F550016F0900CC
:1003A000F550026F09000900F550E96E0900F5509B
:1003B000EA6E090009000900F550036F0900F550C5
:1003C000046F09000900F6CF07F0F7CF08F0F8CF67
:1003D00009F000C0F6FF01C0F7FF02C0F8FF0001FE
:1003E000035302E1045307E00900F550EE6E0307E2
:1003F000F8E20407F9D707C0F6FF08C0F7FF09C005
:0E040000F8FF00010507000E065BBFD71200D3
:02040E00000EDE
:10041000F36E00EE00F0080E01D81200EA6002D080
:0E042000EE6AFCD7F350E9601200EE6AFCD7DA
:02042E0013EECB
:1004300000F023EE00F0F86AB8EC01F026EC02F0D0
:08044000DCEC00F0FBD7120018
:040448008B7412009F
:02044C0012009C
:02044E000000AC
:020000040030CA
:0100000000FF
:010001000EF0
:010003001EDE
:010006008574
:00000001FF
